:1000000063C0000086C0000084C0000082C0000001
:1000100080C000007EC000007CC000007AC00000EC
:1000200078C0000076C0000074C0000072C00000FC
:1000300070C000006EC000006CC000006AC000000C
:1000400013C3000066C0000039C2000069C200008E
:1000500060C000005EC000005CC000005AC000002C
:1000600058C0000056C00000000000080002010057
:100070000003040700000000000000000102040863
:100080001020408001020408102001020408102002
:10009000040404040404040402020202020203032E
:1000A00003030303000000002300260029000000D2
:1000B0000000250028002B0000000000240027007D
:1000C0002A00D900BE02180111241FBECFEFD8E0CC
:1000D000DEBFCDBF11E0A0E0B1E0E4ECF0E102C092
:1000E00005900D92AA32B107D9F721E0AAE2B1E05A
:1000F00001C01D92AF3EB207E1F710E0C6ECD0E0C0
:1001000003C02297FE0171D5C23CD107D1F7A2D21C
:10011000CDC776CFE2C320E432E44FE050E012C412
:1001200035C326E040E855E260E070E085E491E008
:1001300065D161E08AE098D361E088E095D360E022
:1001400087E092D361E08DE08FC30F931F938AE223
:1001500091E0ECD4C5D56093410170934201809346
:100160004301909344010091080110910901222755
:1001700017FD2095322F06171707280739077CF03F
:100180000091060110910701222717FD2095322FBB
:10019000601771078207930714F061E001C060E007
:1001A0008DE09BD362E370E080E090E01F910F91BF
:1001B000C8C2CF93DF93CDB7DEB728970FB6F894B8
:1001C000DEBF0FBECDBF20E930E04BE850E06AE86B
:1001D00070E089E391E05BD48EE191E09A838983BA
:1001E00080913B0190913C019C838B8380913D01E8
:1001F00090913E019E838D8380913F0190914001BB
:1002000098878F839E012F5F3F4F47E050E068E063
:1002100070E08AE291E067D4CE01019618D4289666
:100220000FB6F894DEBF0FBECDBFDF91CF9108951A
:100230008AE291E012D489E391E009C4FC01818D46
:10024000228D90E0805C9F4F821B91098F739927CC
:100250000895FC01918D828D981731F0828DE80F01
:10026000F11D858D90E008958FEF9FEF0895FC01BB
:10027000918D828D981761F0828DDF01A80FB11DDD
:100280005D968C91928D9F5F9F73928F90E0089501
:100290008FEF9FEF089585EB92E0892B41F080E08E
:1002A00090E0892B21F061D181110C940000089518
:1002B000FC01848DDF01A80FB11DA35ABF4F2C9103
:1002C000848D90E001968F739927848FA689B789D2
:1002D0002C93A089B1898C9180648C93938D848DAB
:1002E000981306C00288F389E02D80818F7D80837A
:1002F0000895CF93DF93EC01888D8823C1F0EA89BC
:10030000FB89808185FD05C0A889B9898C9186FD0E
:100310000EC00FB607FCF5CF808185FFF2CFA8890C
:10032000B9898C9185FFEDCFCE01C2DFE8CFDF9197
:10033000CF910895CF92DF92FF920F931F93CF93A7
:10034000DF931F92CDB7DEB76C01DC015B969C9109
:100350005B975C968C915C97981307C05096ED91D3
:10036000FC915197808185FD31C0F601038D10E02D
:100370000F5F1F4F0F731127F02EF601848DF812B7
:1003800010C00FB607FCF9CFD6015096ED91FC9145
:100390005197808185FFF1CFC601698389DF69812B
:1003A000ECCF838DE80FF11DE35AFF4F6083D60138
:1003B0005B960C935B975296ED91FC9153978081DD
:1003C0008062808381E058968C930DC0D60156964A
:1003D000ED91FC91579760835096ED91FC91519768
:1003E00080818064808381E090E00F90DF91CF91E5
:1003F0001F910F91FF90DF90CF900895BF92CF9201
:10040000DF92EF92FF92CF93DF93EC016A017B01C1
:10041000B22EE889F98982E08083411581EE580780
:100420006105710599F060E079E08DE390E0A70146
:100430009601ADD32150310941095109569547958F
:1004400037952795211580E1380790F0E889F989DB
:10045000108260E874E88EE190E0A701960197D3DE
:1004600021503109410951095695479537952795EE
:10047000EC85FD853083EE85FF852083188EEC8921
:10048000FD89B082EA89FB89808180618083EA8965
:10049000FB89808188608083EA89FB89808180680C
:1004A0008083EA89FB8980818F7D8083DF91CF9172
:1004B000FF90EF90DF90CF90BF9008951F920F9222
:1004C0000FB60F9211242F938F939F93EF93FF9367
:1004D000E0915501F09156018081E0915B01F0912E
:1004E0005C0182FD12C0908180915E018F5F8F73ED
:1004F00020915F01821751F0E0915E01F0E0EB5B2B
:10050000FE4F958F80935E0101C08081FF91EF9136
:100510009F918F912F910F900FBE0F901F90189564
:100520001F920F920FB60F9211242F933F934F9368
:100530005F936F937F938F939F93AF93BF93EF934B
:10054000FF9385E491E0B4DEFF91EF91BF91AF910D
:100550009F918F917F916F915F914F913F912F91DB
:100560000F900FBE0F901F90189585E491E066DE06
:1005700021E0892B09F420E0822F08951092480190
:100580001092470188EE93E0A0E0B0E0809349012B
:1005900090934A01A0934B01B0934C018EE091E0FF
:1005A000909346018093450185EC90E09093520131
:1005B0008093510184EC90E0909354018093530117
:1005C00080EC90E0909356018093550181EC90E08F
:1005D000909358018093570182EC90E090935A01D8
:1005E0008093590186EC90E090935C0180935B01CD
:1005F00010925E0110925F011092600110926101F1
:100600000895CF92DF92EF92FF920F931F93CF93B3
:10061000DF936C017A01EB01E60EF71E00E010E0BB
:10062000CE15DF0561F06991D601ED91FC91019045
:10063000F081E02DC6010995080F191FF1CFC801FF
:10064000DF91CF911F910F91FF90EF90DF90CF90AE
:1006500008950895A5D0FDDF64DDCBE4D1E075DD1C
:100660002097E9F318DEFBCF1F920F920FB60F927F
:1006700011242F933F938F939F93AF93BF938091B8
:10068000E3019091E401A091E501B091E601309180
:10069000E20123E0230F2D3720F40196A11DB11DA7
:1006A00005C026E8230F0296A11DB11D2093E2018B
:1006B0008093E3019093E401A093E501B093E601F8
:1006C0008091E7019091E801A091E901B091EA01E0
:1006D0000196A11DB11D8093E7019093E801A093BD
:1006E000E901B093EA01BF91AF919F918F913F9142
:1006F0002F910F900FBE0F901F9018953FB7F89451
:100700008091E7019091E801A091E901B091EA019F
:1007100026B5A89B05C02F3F19F00196A11DB11D5C
:100720003FBF6627782F892F9A2F620F711D811D79
:10073000911D42E0660F771F881F991F4A95D1F7D8
:100740000895CF92DF92EF92FF92CF93DF936B01E8
:100750007C01D4DFEB01C114D104E104F10479F090
:1007600075D1CCDF6C1B7D0B683E7340A0F381E03C
:10077000C81AD108E108F108C851DC4FECCFDF916D
:10078000CF91FF90EF90DF90CF900895019739F0CF
:10079000880F991F880F991F02970197F1F7089505
:1007A000789484B5826084BD84B5816084BD85B54C
:1007B000826085BD85B5816085BDEEE6F0E0808113
:1007C00081608083E1E8F0E0108280818260808334
:1007D000808181608083E0E8F0E0808181608083B7
:1007E000E1EBF0E0808184608083E0EBF0E08081E9
:1007F00081608083EAE7F0E080818460808380818B
:100800008260808380818160808380818068808332
:100810001092C1000895833081F028F4813099F05E
:100820008230A1F008958730A9F08830B9F0843083
:10083000D1F4809180008F7D03C0809180008F77FC
:1008400080938000089584B58F7702C084B58F7D32
:1008500084BD08958091B0008F7703C08091B0006F
:100860008F7D8093B0000895CF93DF9390E0FC01DB
:10087000E458FF4F2491FC01E057FF4F84918823F7
:1008800049F190E0880F991FFC01E854FF4FA591B2
:10089000B49182559F4FFC01C591D4919FB76111CE
:1008A00008C0F8948C91209582238C9388818223B0
:1008B0000AC0623051F4F8948C91322F3095832322
:1008C0008C938881822B888304C0F8948C91822B2E
:1008D0008C939FBFDF91CF9108950F931F93CF9378
:1008E000DF931F92CDB7DEB7282F30E0F901E8592A
:1008F000FF4F8491F901E458FF4F1491F901E0573B
:10090000FF4F04910023C1F0882319F0698383DF2E
:100910006981E02FF0E0EE0FFF1FE255FF4FA59138
:10092000B4919FB7F8948C91611103C01095812305
:1009300001C0812B8C939FBF0F90DF91CF911F91AE
:100940000F910895CF92DF92EF92FF920F931F9332
:10095000CF93DF9390E0FC01E458FF4FD491FC016A
:10096000E057FF4F7491611102C0C0E001C0CD2F6C
:10097000DA01C901BF70672F70E0660F771F6C55F1
:100980007F4F00E010E09801FB01E590F490F70143
:1009900040814D234C131EC0680179014FEFC41AEA
:1009A000D40AE40AF40A081719072A073B0709F4CE
:1009B00041C097018601E8CF68017901FFEFCF1AA6
:1009C000DF0AEF0AFF0A081719072A073B0791F108
:1009D00097018601FB01E590F490F70140814D23DA
:1009E0004C13EACF801B910BA20BB30B20E030E03D
:1009F000A901FB01E590F490F701F080FD22FC12C3
:100A00000AC0281739074A075B07A1F02F5F3F4F3D
:100A10004F4F5F4FEECFA8E1B0E0DBD0605F7F4F7C
:100A20008F4F9F4F24E096958795779567952A95E8
:100A3000D1F703C060E070E0CB01DF91CF911F914F
:100A40000F91FF90EF90DF90CF90089508952EE1E1
:100A500031E0FC0131832083089526E231E0FC017E
:100A6000318320832EE131E03483238308952EE106
:100A700031E0FC013183208389C026E231E0FC01B2
:100A8000318320832EE131E0348323837FC0FC0156
:100A90008EE191E0918380837383628355834483E5
:100AA0003783268308959B01DC011496ED91FC9118
:100AB000159761E070E0C90109949B01DC01129671
:100AC000ED91FC911397442319F061E070E002C0AE
:100AD00060E070E0C9010994DC011696ED91FC918B
:100AE0001797CB010994FC01D90186E291E091832B
:100AF00080838EE191E09483838312968D919C9103
:100B000013979683858314968D919C911597908762
:100B1000878316968D919C91179792878187568728
:100B200045877487638781E0828308950F931F93BD
:100B3000CF93DF93EC018C010D5F1F4F6B857C859C
:100B400040E0C801BADF62E070E0C801C5DFED81B6
:100B5000FE8161E070E08B859C8509956AE070E01C
:100B6000C801BADF6B857C8540E0C801A6DF6D85D2
:100B70007E85C80198DFE5D02DEC3CEC48E652E4D8
:100B800047D0DF91CF911F910F91089500C2A1E24C
:100B90001A2EAA1BBB1BFD010DC0AA1FBB1FEE1FF7
:100BA000FF1FA217B307E407F50720F0A21BB30B42
:100BB000E40BF50B661F771F881F991F1A9469F7BE
:100BC00060957095809590959B01AC01BD01CF011A
:100BD00008950FD0A59F900DB49F900DA49F800DF8
:100BE000911D11240895EE0FFF1F0590F491E02D43
:100BF0000994A29FB001B39FC001A39F700D811DF6
:100C00001124911DB29F700D811D1124911D089515
:100C10000CD0EBC0E3D040F0DAD030F021F45F3FED
:100C200019F0CCC0511115C1CFC0F0D098F3992361
:100C3000C9F35523B1F3951B550BBB27AA276217A0
:100C40007307840738F09F5F5F4F220F331F441FE5
:100C5000AA1FA9F333D00E2E3AF0E0E830D091501D
:100C60005040E695001CCAF729D0FE2F27D0660F0A
:100C7000771F881FBB1F261737074807AB07B0E849
:100C800009F0BB0B802DBF01FF2793585F4F2AF05F
:100C90009E3F510568F092C0DCC05F3FECF3983E88
:100CA000DCF3869577956795B795F7959F5FC9F7BC
:100CB000880F911D9695879597F90895E1E0660F45
:100CC000771F881FBB1F621773078407BA0720F0BE
:100CD000621B730B840BBA0BEE1F88F7E095089527
:100CE00004D06894B111B5C0089598D088F09F578A
:100CF00090F0B92F9927B751A0F0D1F0660F771F68
:100D0000881F991F1AF0BA95C9F712C0B13081F047
:100D10009FD0B1E008959CC0672F782F8827B85FD7
:100D200039F0B93FCCF3869577956795B395D9F7A8
:100D30003EF490958095709561957F4F8F4F9F4FB2
:100D40000895E89409C097FB3EF4909580957095BE
:100D500061957F4F8F4F9F4F9923A9F0F92F96E907
:100D6000BB279395F695879577956795B795F1117C
:100D7000F8CFFAF4BB0F11F460FF1BC06F5F7F4F19
:100D80008F4F9F4F16C0882311F096E911C077232B
:100D900021F09EE8872F762F05C0662371F096E834
:100DA000862F70E060E02AF09A95660F771F881F03
:100DB000DAF7880F9695879597F9089597F99F67C1
:100DC00080E870E060E008959FEF80EC08950024D3
:100DD0000A941616170618060906089500240A94A0
:100DE00012161306140605060895092E0394000C26
:100DF00011F4882352F0BB0F40F4BF2B11F460FFB5
:100E000004C06F5F7F4F8F4F9F4F089557FD9058DD
:100E1000440F551F59F05F3F71F04795880F97FBBE
:100E2000991F61F09F3F79F0879508951216130678
:100E30001406551FF2CF4695F1DF08C016161706A7
:100E40001806991FF1CF86957105610508940895DC
:100E5000E894BB2766277727CB0197F90895CF93AE
:100E6000DF938230910510F482E090E0E091ED0193
:100E7000F091EE0120E030E0A0E0B0E0309739F1F1
:100E80004081518148175907B8F04817590771F444
:100E900082819381109729F013969C938E931297D9
:100EA0002CC09093EE018093ED0127C021153105F0
:100EB00031F04217530718F0A901DB0101C0EF011F
:100EC0009A01BD01DF010280F381E02DD7CF21150A
:100ED0003105F9F0281B390B2430310580F48A8163
:100EE0009B816115710521F0FB019383828304C00E
:100EF0009093EE018093ED01FE01329644C0FE0115
:100F0000E20FF31F81939193225031093983288393
:100F10003AC02091EB013091EC01232B41F4209158
:100F20000201309103013093EC012093EB012091F9
:100F30000001309101012115310541F42DB73EB773
:100F40004091040150910501241B350BE091EB0108
:100F5000F091EC01E217F307A0F42E1B3F0B2817CA
:100F6000390778F0AC014E5F5F4F2417350748F022
:100F70004E0F5F1F5093EC014093EB0181939193CF
:100F800002C0E0E0F0E0CF01DF91CF910895CF9370
:100F9000DF93009709F487C0FC0132971382128215
:100FA000C091ED01D091EE01209781F42081318133
:100FB000280F391F8091EB019091EC018217930764
:100FC00079F5F093EC01E093EB016DC0DE0120E0D8
:100FD00030E0AE17BF0750F412964D915C91139715
:100FE0009D014115510509F1DA01F3CFB383A283C5
:100FF00040815181840F951F8A179B0771F48D9151
:101000009C911197840F951F02969183808312966D
:101010008D919C911397938382832115310529F437
:10102000F093EE01E093ED013EC0D9011396FC93DD
:10103000EE9312974D915D91A40FB51FEA17FB0730
:1010400079F480819181840F951F0296D9011196C0
:101050009C938E938281938113969C938E93129787
:10106000E0E0F0E08A819B81009719F0FE01EC013D
:10107000F9CFCE01029628813981820F931F2091EA
:10108000EB013091EC012817390769F4309729F406
:101090001092EE011092ED0102C013821282D093E1
:1010A000EC01C093EB01DF91CF91089510E0C6EC05
:1010B000D0E003C0FE0199DD2296C83CD107D1F7EC
:0410C000F894FFCFD2
:1010C4000000EF01800014002800000000009A01D5
:1010D40001031E01370129017901000000002705E1
:0A10E4003705000000002D053D0552
:00000001FF
